:020000040800F2
:1000000090060020590100080B050008B5040008FF
:1000100000000000000000000000000000000000E0
:10002000000000000000000000000000A50700081C
:100030000000000000000000F5050008810800082D
:1000400089010008000000008901000889010008FA
:100050008901000889010008890100088901000858
:1000600000000000890100088901000889010008DA
:1000700089010008890100088901000800000000CA
:10008000890100080000000000000000890100084C
:100090008901000889010008890100088901000818
:1000A0008901000889010008890100087909000810
:1000B0008901000800F002F800F03EF80CA030C8FA
:1000C000083824182D18A246671EAB4654465D46D4
:1000D000AC4201D100F030F87E460F3E0FCCB64660
:1000E0000126334200D0FB1AA246AB4633431847E1
:1000F0004C0C00006C0C0000103A02D378C878C198
:10010000FAD8520701D330C830C101D504680C6059
:10011000704700000023002400250026103A01D378
:1001200078C1FBD8520700D330C100D50B607047AF
:100130001FB51FBD10B510BD00F0F8F81146FFF750
:10014000F7FF00F0B1FD00F010F903B4FFF7F2FF84
:1001500003BC00F015F900000F4880F308880F4831
:100160000168090E0E4A914205D10E480E49016000
:100170000E480F4901600F4880470F480047FEE7CF
:10018000FEE7FEE7FEE7FEE7FEE700000B480C494E
:100190000C4A0D4B70470000900600200400000040
:1001A0001F00000018100240010000000000014084
:1001B00000000000E5080008B500000890000020DD
:1001C00090060020900200209002002000220309E7
:1001D0008B422CD3030A8B4211D300239C464EE062
:1001E00003460B433CD4002243088B4231D303091E
:1001F0008B421CD3030A8B4201D394463FE0C309D0
:100200008B4201D3CB01C01A524183098B4201D3E7
:100210008B01C01A524143098B4201D34B01C01AD2
:10022000524103098B4201D30B01C01A5241C3084A
:100230008B4201D3CB00C01A524183088B4201D3B9
:100240008B00C01A524143088B4201D34B00C01AA5
:100250005241411A00D201465241104670475DE0BA
:10026000CA0F00D04942031000D34042534000223D
:100270009C4603098B422DD3030A8B4212D3FC22E6
:10028000890112BA030A8B420CD3890192118B4265
:1002900008D3890192118B4204D389013AD092117B
:1002A00000E08909C3098B4201D3CB01C01A524136
:1002B00083098B4201D38B01C01A524143098B42FF
:1002C00001D34B01C01A524103098B4201D30B01E8
:1002D000C01A5241C3088B4201D3CB00C01A52410D
:1002E00083088B4201D38B00C01A5241D9D24308F4
:1002F0008B4201D34B00C01A5241411A00D2014631
:10030000634652415B10104601D34042002B00D59A
:100310004942704763465B1000D3404201B500205C
:10032000C046C04602BD704770477047754600F032
:1003300023F8AE46050069465346C008C00085460E
:1003400018B020B5FFF722FF60BC00274908B64669
:100350000026C0C5C0C5C0C5C0C5C0C5C0C5C0C5D4
:10036000C0C5403D49008D4670470446C046C04662
:100370002046FFF7EAFE00000048704730000020EA
:1003800001491820ABBEFEE72600020070470000BE
:1003900001B5074900980860064800690121084333
:1003A0000449086100BF024800680028FBD108BD6D
:1003B0000800002000E000E0F0B50A46002100231C
:1003C000002400BF3DE001258D402B4615681D40EF
:1003D0002C469C4234D11579012D02D01579022D7D
:1003E00016D185684F000326BE40B5438560557918
:1003F0004E00B540866835438560858801268E406D
:10040000B5438580858896798E40B6B23543858020
:1004100005684F000326BE40B543056015794E00C0
:10042000B540066835430560C5684F000326BE40E9
:10043000B543C560D5794E00B540C6683543C56043
:10044000491C1029BFD3F0BDF0B5002300244D078F
:10045000EE0E1546B5402B46CD10AE0005462035B4
:10046000AD594E07F70E0F26BE40B543CE10B6006D
:1004700007462037BD51CD10AE003D46AD591D4356
:100480002C46CD10AD003E467451F0BD0246002012
:10049000938A0B40002B01D0012000E00020704720
:1004A0000185704781617047002A01D0816100E0B9
:1004B0000185704700BFFEE710B50C210920C0067A
:1004C000FFF7E4FF0121081AC4B222460C210920DB
:1004D000C006FFF7E9FF10BD1CB50121480400F07C
:1004E0008BF80C2000900121684601710021817178
:1004F0000321417169460920C006FFF75DFF0C2109
:100500000920C006FFF7CEFF1CBD7047002182788E
:10051000002A27D0184A03231B02D21803789B1005
:100520009B00D15802789207D30EFF229A400B46C7
:100530009343194642789207120E03789B07DB0E0D
:100540009A4011430C4A03231B02D21803789B10D4
:100550009B00D1500278D306DB0E01229A40064B55
:100560001A6007E00278D306DB0E01229A40024BA4
:1005700080331A607047000000E100E010B50028E9
:1005800019DA1A4A03071B0F083B9B089B00D25835
:100590008307DC0EFF23A3409A438B071B0E8407BF
:1005A000E40EA3401A43114B0407240F083CA4088F
:1005B000A4001A5118E00E4A03231B02D218830824
:1005C0009B00D2588307DC0EFF23A3409A438B077E
:1005D0001B0E8407E40EA3401A43054B0324240298
:1005E0001B198408A4001A5110BD00001CED00E086
:1005F00000E100E070470000002905D0054A52697B
:100600000243044B5A6104E0024A52698243014B9F
:100610005A61704700100240002905D0054A9269CE
:100620000243044B9A6104E0024A92698243014BFF
:100630009A61704700100240FEB50446002500266E
:100640000020019000900027504840680C2108408D
:100650000546002D04D0042D05D0082D28D105E035
:100660004B48206027E04A48206024E04748406823
:100670000F21890408400646444840680321C90305
:1006800008400190B00C861C0198002803D1414815
:10069000704320600BE03D48C06A0007000F401C1B
:1006A00000903B480099FFF791FD7043206002E005
:1006B0003748206000BF00BF34484068F021084040
:1006C00005462D093448475D2068F84060602F4892
:1006D000406807210902084005462D0A2E48475D5B
:1006E0006068F840A0602948006BFF210131084094
:1006F000884202D02948E0600DE02448406801218A
:1007000089030840884203D0A0684008E06002E006
:10071000A0688008E0601D48006B40210840402828
:1007200002D01F48206102E00120C0032061174869
:10073000006B10210840102802D01548606101E0CC
:10074000206860611148006B8007800F002802D18B
:10075000A068A06119E00D48006B8007800F012898
:1007600002D12068A06110E00848006B8007800F6C
:10077000022802D18003A06107E00448006B8007D3
:10078000800F032801D10248A061FEBD0010024085
:1007900000127A0000093D000C000020809FD50067
:1007A00012800000704700000CB5002001900090FE
:1007B000314800680121090408432F49086000BF3F
:1007C0002D48006801214904084000900198401C10
:1007D00001900098002804D105210903019888425E
:1007E000EED125480068012149040840002802D0C4
:1007F0000120009001E0002000900098012839D1EC
:1008000011201E4908601C4840681B494860084682
:1008100040684860084640687F21C90388431649FC
:10082000486008464068112109040843124948609D
:10083000084600680121090608430F49086000BF07
:100840000D4800680121490608400028F8D00A48F0
:1008500040688008800008494860084640680221D6
:1008600008430549486000BF034840680C21084020
:100870000828F9D10CBD0000001002400020024001
:1008800010B500F06DF810BD10B51249124800689F
:10089000FFF79CFC0446601E1049884201D90120E4
:1008A0000CE0601E0E4948610321081FFFF766FE39
:1008B00000200B498861072008610020002801D032
:1008C00000BFFEE70648006940084000044908618F
:1008D00010BD0000A08601001C000020FFFFFF00EB
:1008E00000E000E010B51B480068012108431949E9
:1008F000086008464068184908401649486008469C
:10090000006816490840134908600846006801213C
:10091000890488430F490860084640683F2109045C
:1009200088430C4948600846C06A00090001C86253
:100930000846006BFF215431884306490863084686
:10094000406B40084000486300208860FFF72CFFA0
:1009500010BD0000001002400CB8FFF8FFFFF6FECB
:1009600004480068002804D002480068401E01497D
:10097000086070470800002010B50949094800F0D8
:10098000B9F800280AD0074800F076F906494871FE
:10099000FFF792FD0621044800F06CF810BD00003E
:1009A00005010500003801400000002000B589B0B5
:1009B00001218805FFF720FE01214804FFF71CFEF6
:1009C00001218803FFF728FE01220921C806FFF74D
:1009D0003BFD01220A210920C006FFF735FD032057
:1009E00040020790022108A80170002181700121B6
:1009F000C1700321417007A90920C006FFF7DCFC84
:100A000010200790012108A8017000218170C17099
:100A10000321417007A91448FFF7CEFC10211248AA
:100A2000FFF73EFD4B20C001019000200290039093
:100A3000049006900C20059001A90C4800F0A2F843
:100A400001220B49094800F07CF80121074800F019
:100A50003BF81B2168460170022141700121817021
:100A6000FFF754FD09B000BD0014004800380140F4
:100A70000501050070B505460E46002410211048FA
:100A8000FFF710FD00BF40210E4800F029F80028B4
:100A9000F9D000240CE0295D0A4800F0F2F800BF0C
:100AA0004021084800F01CF80028F9D0601CC4B2AE
:100AB000B442F0DB10210248FFF7F2FC70BD0000E9
:100AC0000014004800380140002904D002680123C6
:100AD0001A43026003E00268520852000260704745
:100AE00002460020D3690B40002B01D0012000E01A
:100AF0000020704770B502460B46002400210025F7
:100B000000201E04350ED9B201268E403146012D3B
:100B100002D11668314006E0022D02D156683140FC
:100B200001E0966831401C0C0126A6403446D66987
:100B30003440002903D0002C01D0012000E0002027
:100B400070BDF8B50346002400260096002500205D
:100B500018460E04340ECEB200960127009EB74010
:100B60003D46022C01D1001D02E0032C00D10830CB
:100B7000002A03D006682E43066002E00668AE43F2
:100B80000660F8BDF0B589B005460E460024002089
:100B9000089000BF00BF28684008400028606C68CB
:100BA00003210903204688430446B06804436C606F
:100BB0002C682F480440F168706808433169084385
:100BC00004432C60AC680321090220468843044694
:100BD00070690443AC606846FFF72EFD25488542E6
:100BE00002D10698089001E0029808902868012137
:100BF000C9030840002809D0326851001923089A17
:100C00005A431046FFF7E2FA074608E032689100BF
:100C10001923089A5A431046FFF7D8FA0746642169
:100C20003846FFF7D3FA0401200964214843381AF3
:100C3000079028680121C903084000280AD00799B5
:100C4000C900084632306421FFF7C0FA4007400F60
:100C5000044309E007990901084632306421FFF78F
:100C6000B5FA0007000F0443AC8109B0F0BD0000E5
:100C7000F3E9FFFF003801400146888CC005C00D34
:100C80007047CA05D20D02857047002007E0002199
:100C900000E0491C7D22D2009142FADB401C7D22FB
:100CA000D2009042F3DB7047FFF7EFFFFFF7ECFD58
:100CB000FFF712FCFFF77AFE10210848FFF7F2FB5E
:100CC00007A000F02FF810210448FFF7E9FB04E02B
:100CD0000C48FFF75DFBFFF7EFFBF9E70014004856
:100CE00046726573682050657273696D6D6F6E2012
:100CF000616C6C20726967687420726573657276C6
:100D00006564210050C3000000BF0549C969802205
:100D100011400029F9D002492031088170470000B4
:100D20000038014000B5034603E018785B1CFFF76C
:100D3000EBFF18780028F8D100BD00005C0D00081A
:100D40000000002030000000F80000088C0D0008B2
:100D500030000020600600001401000801020304B6
:100D60000500000000000000000000000102030474
:100D70000102030406070809006CDC020000000001
:0C0D80000000000001020304060708093F
:04000005080000B53A
:00000001FF
