:020000040800F2
:100000009007002091010008470B000855080008E0
:1000100000000000000000000000000000000000E0
:10002000000000000000000000000000CD0F0008EC
:100030000000000000000000310C0008A9100008BA
:10004000C101000800000000C1010008C101000852
:10005000C1010008C1010008C1010008C101000878
:1000600000000000C1010008C1010008C101000832
:10007000C1010008C1010008C10100080000000022
:10008000891100080000000000000000C101000804
:10009000C1010008C1010008C1010008C101000838
:1000A000C1010008C1010008C1010008B113000826
:1000B000C101000800F002F800F03EF80CA030C8C2
:1000C000083824182D18A246671EAB4654465D46D4
:1000D000AC4201D100F030F87E460F3E0FCCB64660
:1000E0000126334200D0FB1AA246AB4633431847E1
:1000F000A0160000C0160000103A02D378C878C1DC
:10010000FAD8520701D330C830C101D504680C6059
:10011000704700000023002400250026103A01D378
:1001200078C1FBD8520700D330C100D50B607047AF
:100130001FB51FBD10B510BD00F075F91146FFF7D2
:10014000F7FF01F0FBFA00F08DF903B4FFF7F2FFBF
:1001500003BC00F091F9000070B505460C46164648
:1001600002E00FCC0FC5103E102EFAD2082E02D39B
:1001700003CC03C5083E042E07D301CC01C5361FAE
:1001800003E021782970641C6D1C761EF9D270BDC5
:100190000F4880F308880F480168090E0E4A914203
:1001A00005D10E480E4901600E480F4901600F4805
:1001B00080470F480047FEE7FEE7FEE7FEE7FEE761
:1001C000FEE700000B480C490C4A0D4B704700003D
:1001D00090070020040000001F00000018100240DB
:1001E0000100000000000140000000000D110008A7
:1001F000B500000890010020900700209003002027
:1002000090030020F8B5042A2CD3830712D00B7872
:10021000491C0370401C521E83070BD00B78491CED
:100220000370401C521E830704D00B78491C0370D6
:10023000401C521E8B079B0F05D0C91ADF002023DC
:10024000DE1B08C90AE0FFF787FFF8BD1D4608C995
:10025000FD401C46B4402C4310C0121F042AF5D2A6
:10026000F308C91A521EF0D40B78491C0370401CC5
:10027000521EEAD40B78491C0370401C012AE4D4B6
:1002800009780170F8BD01E004C0091F0429FBD200
:100290008B0701D50280801CC90700D0027070470F
:1002A00000290BD0C30702D00270401C491E02294E
:1002B00004D3830702D50280801C891EE3E7002255
:1002C000EEE70022DFE7002203098B422CD3030A6A
:1002D0008B4211D300239C464EE003460B433CD493
:1002E000002243088B4231D303098B421CD3030AFB
:1002F0008B4201D394463FE0C3098B4201D3CB012B
:10030000C01A524183098B4201D38B01C01A52415A
:1003100043098B4201D34B01C01A524103098B425E
:1003200001D30B01C01A5241C3088B4201D3CB0049
:10033000C01A524183088B4201D38B00C01A52412C
:1003400043088B4201D34B00C01A5241411A00D2DC
:1003500001465241104670475DE0CA0F00D0494245
:10036000031000D34042534000229C4603098B42B5
:100370002DD3030A8B4212D3FC22890112BA030A3D
:100380008B420CD3890192118B4208D389019211BF
:100390008B4204D389013AD0921100E08909C30944
:1003A0008B4201D3CB01C01A524183098B4201D346
:1003B0008B01C01A524143098B4201D34B01C01A31
:1003C000524103098B4201D30B01C01A5241C308A9
:1003D0008B4201D3CB00C01A524183088B4201D318
:1003E0008B00C01A5241D9D243088B4201D34B0033
:1003F000C01A5241411A00D20146634652415B1075
:10040000104601D34042002B00D549427047634655
:100410005B1000D3404201B50020C046C04602BD7B
:10042000704770477047754600F022F8AE460500E9
:1004300069465346C008C000854618B020B5FFF78E
:10044000C1FE60BC00274908B6460026C0C5C0C52D
:10045000C0C5C0C5C0C5C0C5C0C5C0C5403D4900B8
:100460008D4670470446C046C0462046FFF76DFEE5
:10047000004870472C01002001491820ABBEFEE760
:1004800026000200704700001CB50121C80400F0DE
:10049000D1FB0121880500F0CDFB3E20009000211A
:1004A000684601710121C1716946074800F04AF9A7
:1004B000402000900021684601710121C171694608
:1004C000024800F03FF91CBD000800480014004835
:1004D00010B5002400BF1FE0E200114BD218918834
:1004E000E200985800F098F9002801D1012000E0BE
:1004F0000020002807D00120A0400A4909780843BD
:100500000849087006E00120A040064909788143A7
:1005100004480170601CC4B2062CDDDB10BD000075
:10052000080000200400002070B504460D46E07865
:100530001549097888421CD12079202802D06028EA
:1005400016D111E0012011490870002010490870EF
:1005500000F0D0F900F054FC207900F0B1FC0D4817
:1005600000210170417003E0204600F017FF00BF3A
:1005700009E0E078FF2806D12079F02803D121791D
:10058000E07800F0E9FC70BD0400002005000020C8
:10059000D80000204800002070B502460B4600201D
:1005A0000021002500BF17E0CE1C9C5D00250FE058
:1005B00006466640F607F60F002E01D1401004E013
:1005C0001826704040108026304364106E1CF5B22F
:1005D000082DEDDB4E1CF1B2D61E8E42E4DC70BD60
:1005E00010B504466079012806D0022827D00328D8
:1005F00048D0042873D168E0A079002806D00128EB
:1006000005D002280AD0032816D10EE015E0424A90
:1006100091881068002200F081FE0EE03E4A918829
:100620001068002200F088FE07E03B4A91881068BD
:10063000002200F08FFE00E000BF00BF6AE0A0795A
:10064000002806D0012805D002280AD0032816D198
:100650000EE015E0304A91899068012200F05EFEBC
:100660000EE02D4A91899068012200F065FE07E0B6
:10067000294A91899068012200F06CFE00E000BFD9
:1006800000BF47E0A079002806D0012805D0022845
:100690000AD0032816D10EE015E01F4A918A10698E
:1006A000022200F03BFE0EE01B4A918A10690222F2
:1006B00000F042FE07E0184A918A1069022200F019
:1006C00049FE00E000BF00BF24E0A079002807D069
:1006D000012806D002280BD0032817D10FE018E01C
:1006E00015E00D4A918B9069032200F017FE0EE091
:1006F000094A918B9069032200F01EFE07E0064A2A
:10070000918B9069032200F025FE00E000BF00BF3E
:1007100000E000BF00BF10BDB800002001B50749D0
:1007200000980860064800690121084304490861EF
:1007300000BF024800680028FBD108BD3800002037
:1007400000E000E0F0B50A4600210023002400BFCD
:100750003DE001258D402B4615681D402C469C42EE
:1007600034D11579012D02D01579022D16D1856865
:100770004F000326BE40B543856055794E00B54015
:10078000866835438560858801268E40B54385801F
:10079000858896798E40B6B23543858005684F00CE
:1007A0000326BE40B543056015794E00B540066886
:1007B00035430560C5684F000326BE40B543C5609C
:1007C000D5794E00B540C6683543C560491C10292F
:1007D000BFD3F0BDF0B5002300244D07EE0E154643
:1007E000B5402B46CD10AE0005462035AD594E071D
:1007F000F70E0F26BE40B543CE10B6000746203791
:10080000BD51CD10AE003D46AD591D432C46CD1017
:10081000AD003E467451F0BD02460020138A0B40E5
:10082000002B01D0012000E000207047024600208C
:10083000938A0B40002B01D0012000E0002070477C
:100840000185704781617047002A01D0816100E015
:100850000185704700BFFEE710B504460648005DFD
:10086000012808D1E200054BD2189188E20098587F
:10087000224600F06FFD10BD3C000020B8000020B3
:100880001CB50121480400F0D5F90121880400F0CD
:10089000D1F9602000900021684601710121C171E9
:1008A00069460920C006FFF74DFF55200090002142
:1008B000684601710121C17169460248FFF742FF94
:1008C0001CBD000000040048F8B505460E46002790
:1008D000002400BF09E0285D315D884203D0204636
:1008E000FFF7BAFF0127601CC4B2042CF3DB3846C3
:1008F000F8BD000037480078012800D100E0002052
:10090000400034494978012900D100E00021C900A4
:10091000084330498978012900D100E000214901CC
:1009200008432C49C978012900D100E00021C90100
:100930000843294909780843274908702548007960
:10094000012800D100E00020400022494979012916
:1009500000D100E00021C90008431F49497808433D
:100960001D4948701D480078012800D100E0002092
:100970001A494978012900D100E000218900084383
:1009800016498978012900D100E0002109010843B6
:100990001249C978012900D100E0002189010843EA
:1009A0000D49097808430C4908700C480079012862
:1009B00000D100E0002009494979012900D100E077
:1009C00000218900084304494978084302494870D6
:1009D000704700003C00002048000020420000203A
:1009E0001CB50121880400F025F90121880500F0DB
:1009F00021F9AA2000900021684601710121C171EE
:100A000069460748FFF79EFEA02000900021684637
:100A100001710121C17169460248FFF793FE1CBDB7
:100A2000000400480014004810B5002400BF10E086
:100A3000E200094BD2189188E2009858FFF7ECFECB
:100A4000002801D1012000E0002004490855601C65
:100A5000C4B2062CECDB10BD4C0000203C00002092
:100A600010B5002400BF10E0E2001D4BD2189188A1
:100A7000E2009858FFF7D0FE002801D1012000E0E5
:100A8000002018490855601CC4B2062CECDB16483F
:100A90000078002823D113491448FFF715FF0028D8
:100AA0001DD01348FFF73AFE002410E0E2000C4B83
:100AB000D2189188E2009858FFF7AEFE002801D1C5
:100AC000012000E0002007490855601CC4B2062C34
:100AD000ECDB064803490A8802804988418010BD42
:100AE0007C0000204200002005000020AC00002017
:100AF000E093040010B50C210920C006FFF796FE14
:100B00000121081AC4B222460C210920C006FFF7B1
:100B10009BFE10BD1CB50121480400F08BF80C2091
:100B2000009001216846017100218171032141710A
:100B300069460920C006FFF705FE0C210920C00602
:100B4000FFF780FE1CBD704700218278002A27D065
:100B5000184A03231B02D21803789B109B00D1581C
:100B600002789207D30EFF229A400B469343194610
:100B700042789207120E03789B07DB0E9A401143CE
:100B80000C4A03231B02D21803789B109B00D15000
:100B90000278D306DB0E01229A40064B1A6007E06A
:100BA0000278D306DB0E01229A40024B80331A6092
:100BB0007047000000E100E010B5002819DA1A4A79
:100BC00003071B0F083B9B089B00D2588307DC0ED2
:100BD000FF23A3409A438B071B0E8407E40EA34018
:100BE0001A43114B0407240F083CA408A4001A510F
:100BF00018E00E4A03231B02D21883089B00D25828
:100C00008307DC0EFF23A3409A438B071B0E840748
:100C1000E40EA3401A43054B032424021B19840845
:100C2000A4001A5110BD00001CED00E000E100E03E
:100C300070470000002905D0054A52690243044B61
:100C40005A6104E0024A52698243014B5A6170477B
:100C500000100240002905D0054AD2690243044B26
:100C6000DA6104E0024AD2698243014BDA617047DB
:100C700000100240002905D0054A92690243044B46
:100C80009A6104E0024A92698243014B9A6170477B
:100C900000100240FEB50446002500260020019009
:100CA00000900027504840680C2108400546002D60
:100CB00004D0042D05D0082D28D105E04B48206034
:100CC00027E04A48206024E0474840680F21890413
:100CD00008400646444840680321C9030840019083
:100CE000B00C861C0198002803D141487043206055
:100CF0000BE03D48C06A0007000F401C00903B48D5
:100D00000099FFF7E0FA7043206002E03748206066
:100D100000BF00BF34484068F021084005462D0957
:100D20003448475D2068F84060602F4840680721DC
:100D30000902084005462D0A2E48475D6068F840C4
:100D4000A0602948006BFF2101310840884202D091
:100D50002948E0600DE024484068012189030840EB
:100D6000884203D0A0684008E06002E0A0688008E4
:100D7000E0601D48006B40210840402802D01F4819
:100D8000206102E00120C00320611748006B1021A0
:100D90000840102802D01548606101E020686061B9
:100DA0001148006B8007800F002802D1A068A06165
:100DB00019E00D48006B8007800F012802D12068E0
:100DC000A06110E00848006B8007800F022802D164
:100DD0008003A06107E00448006B8007800F0328B0
:100DE00001D10248A061FEBD0010024000127A004D
:100DF00000093D00D9000020809FD500128000002E
:100E000012480078012801D1022000E001200F499A
:100E10004978012901D1022100E00121890008431C
:100E20000A498978012901D1022100E00121090143
:100E300008430649C978012901D1022100E00121B6
:100E4000890108430249087070470000B000002083
:100E5000B400002010B588B004460020049005902E
:100E600006900790019002900390AD2168460174AE
:100E7000017C0171DA214174417C4171032181744B
:100E8000817C81710D4801786846C174C17CC17153
:100E90000475017D017204214175417D4172032178
:100EA000817401A90620FFF777FB69468875072141
:100EB00004A800F037FB08B010BD000004000020BB
:100EC00010B588B004460020049005900690079065
:100ED000019002900390AD2168460174017C01717C
:100EE000DA214174417C417103218174817C8171DB
:100EF000164801786846C174C17CC1710475017DD2
:100F0000017204214175417D417211484178684662
:100F10008175817D81720E4801786846C175C17DF9
:100F2000C1720C48017868460176017E0173062182
:100F3000817401A90920FFF72FFB694648760A2131
:100F400004A800F0EFFA08B010BD00000400002073
:100F500048000020B400002030B587B004460D469C
:100F6000002003900490059006900090019002905C
:100F7000AD2168460173017B0170DA214173417B29
:100F8000417003218173817B8170C473C17BC17007
:100F90000574017C017104214174417C41710A484E
:100FA000017868468174817C81710421817369466E
:100FB0000720FFF7F1FA6946C874082103A800F07A
:100FC000B1FA07B030BD00000400002070470000F7
:100FD0000CB50020019000903148006801210904FF
:100FE00008432F49086000BF2D48006801214904CB
:100FF000084000900198401C01900098002804D1FE
:101000000521090301988842EED125480068012195
:1010100049040840002802D00120009001E000208F
:1010200000900098012839D111201E4908601C4801
:1010300040681B4948600846406848600846406868
:101040007F21C9038843164948600846406811213A
:10105000090408431249486008460068012109064E
:1010600008430F49086000BF0D4800680121490688
:1010700008400028F8D00A484068800880000849E5
:10108000486008464068022108430549486000BF9F
:10109000034840680C2108400828F9D10CBD000025
:1010A000001002400020024010B500F02BF910BDE6
:1010B00010B5124912480068FFF705F90446601E92
:1010C0001049884201D901200CE0601E0E49486198
:1010D0000321081FFFF770FD00200B4988610720DE
:1010E00008610020002801D000BFFEE70648006923
:1010F000400840000449086110BD0000A0860100BE
:10110000EC000020FFFFFF0000E000E010B51B48EE
:1011100000680121084319490860084640681849D9
:1011200008401649486008460068164908401349B7
:101130000860084600680121890488430F49086057
:10114000084640683F21090488430C494860084626
:10115000C06A00090001C8620846006BFF215431D3
:101160008843064908630846406B400840004863CE
:1011700000208860FFF72CFF10BD00000010024027
:101180000CB8FFF8FFFFF6FE10B501210E4800F085
:1011900033F8002815D001210B4800F01BF80B484C
:1011A000007801280DD10A480078401C08490870D1
:1011B00008460078052804DD002004490870044929
:1011C0000870FFF797FC10BD0004004005000020E8
:1011D000D8000020CA43028270470000002904D0D2
:1011E000028801231A43028003E00288014B1A405F
:1011F00002807047FEFF000030B502460020002349
:101200000024158A0D402B4695890D402C46002B55
:1012100003D0002C01D0012000E0002030BD002AC6
:1012200003D083890B43838102E083898B438381CD
:101230007047000000220288154B984206D0012317
:101240009B07984202D0134B984203D1124B1A408D
:101250004B881A43114B984203D0114B1A400B890B
:101260001A4302804B68C3620B880385084B98427F
:1012700008D00C4B984205D00B4B984202D00B4B38
:10128000984201D18B7A0386012383827047000044
:10129000002C0140000400408FFF000000100040BF
:1012A000FFFC0000004001400044014000480140B4
:1012B0001FB501210220FFF7CDFC0F4802900F4916
:1012C0006846818000218181C18001A90C48FFF717
:1012D000B1FF102168460170002141700121817029
:1012E000FFF732FC012211460548FFF798FF012164
:1012F0000348FFF773FF1FBD0F27000067100000B2
:101300000004004004480068002804D00248006837
:10131000401E0149086070473800002070B505463E
:101320000E46144631462846FFF78AFA0020014946
:10133000085570BDB000002070B505460E46144635
:1013400031462846FFF77EFA01200149085570BD55
:10135000B000002070B505460E4614460D48005DED
:10136000012809D1E2000C4BD2189188E20098586C
:101370002246FFF7D3FF0CE00648005D002808D1A5
:10138000E200054BD2189188E20098582246FFF7F8
:10139000D3FF70BDB0000020B800002010B5044697
:1013A0002046FFF71DF92079FFF754FD10BD00001E
:1013B00010B52549254800F0F5F8002842D023480B
:1013C00000F0B2F9C1B2224802780078401C204BEC
:1013D0001870204881540078AD282AD11D488078A3
:1013E000001D19460978884214D118460278194917
:1013F0001948FEF707FF164800781749491E487537
:101400000120087014211348FEF759FF00201049ED
:10141000087015E00F488078001D0D490978884252
:101420000EDA00200A49087014210A48FEF747FF27
:1014300006E014210748FEF742FF00200449087027
:10144000FFF758FB10BD0000050105000038014002
:1014500000000020160100200101002000B589B025
:1014600001218805FFF7E6FB01214804FFF7E2FBB5
:1014700001218803FFF7FEFB01220921C806FFF7BF
:10148000A9F901220A210920C006FFF7A3F90320C8
:1014900040020790022108A80170002181700121FB
:1014A000C1700321417007A90920C006FFF74AF95E
:1014B00010200790012108A8017000218170C170DF
:1014C0000321417007A91448FFF73CF91021124885
:1014D000FFF7B6F94B20C001019000200290039065
:1014E000049006900C20059001A90C4800F0A2F889
:1014F00001220B49094800F07CF80121074800F05F
:101500003BF81B2168460170022141700121817066
:10151000FFF71AFB09B000BD001400480038014075
:101520000501050070B505460E460024102110483F
:10153000FFF788F900BF40210E4800F029F8002885
:10154000F9D000240CE0295D0A4800F0F2F800BF51
:101550004021084800F01CF80028F9D0601CC4B2F3
:10156000B442F0DB10210248FFF76AF970BD0000B9
:101570000014004800380140002904D0026801230B
:101580001A43026003E0026852085200026070478A
:1015900002460020D3690B40002B01D0012000E05F
:1015A0000020704770B502460B460024002100253C
:1015B00000201E04350ED9B201268E403146012D81
:1015C00002D11668314006E0022D02D15668314042
:1015D00001E0966831401C0C0126A6403446D669CD
:1015E0003440002903D0002C01D0012000E000206D
:1015F00070BDF8B5034600240026009600250020A3
:1016000018460E04340ECEB200960127009EB74055
:101610003D46022C01D1001D02E0032C00D1083010
:10162000002A03D006682E43066002E00668AE4337
:101630000660F8BDF0B589B005460E4600240020CE
:10164000089000BF00BF28684008400028606C6810
:1016500003210903204688430446B06804436C60B4
:101660002C682F480440F1687068084331690843CA
:1016700004432C60AC6803210902204688430446D9
:1016800070690443AC606846FFF704FB2548854257
:1016900002D10698089001E002980890286801217C
:1016A000C9030840002809D0326851001923089A5C
:1016B0005A431046FEF707FE074608E032689100DD
:1016C0001923089A5A431046FEF7FDFD0746642188
:1016D0003846FEF7F8FD0401200964214843381A12
:1016E000079028680121C903084000280AD00799FB
:1016F000C900084632306421FEF7E5FD4007400F7F
:10170000044309E007990901084632306421FEF7D5
:10171000DAFD0007000F0443AC8109B0F0BD000002
:10172000F3E9FFFF003801400146888CC005C00D79
:101730007047CA05D20D028570470000FFF7B8FC5C
:10174000FFF7B6FDFFF7E6F9FFF788FEFFF798F819
:10175000FFF746F9FEF798FE16E0FEF7B9FEFFF731
:1017600063F9FFF77DF90948007800280CD00020C4
:10177000064908700846417D401CFEF7D5FE14213D
:101780000248401CFEF79BFDE7E700000001002037
:10179000B01700080000002000010000F800000859
:1017A000B018000800010020900600001401000895
:1017B00000000000000000000008004820000000B9
:1017C0000008004810000000000800480800000061
:1017D0000008004804000000000800480200000063
:1017E000001400484000000000000000000000005D
:1017F000000000000000000000000000000400489D
:1018000080000000000400482000000000040048A0
:101810000800000000040048020000000014004816
:101820008000000000140048200000000004004870
:10183000010000000004004804000000000400480B
:1018400010000000000400484000000000000048B4
:1018500040000000000000482000000000000000E0
:101860000000000000000000000C004880000000A4
:10187000000C004810000000000C004808000000A8
:10188000000C0048040000000000000000010203FA
:10189000040102030406070809000000006CDC02D2
:1018A0000000000000000000010203040607080910
:04000005080000B53A
:00000001FF
