:020000040800F2
:100000008807002059010008E90A0008C106000815
:1000100000000000000000000000000000000000E0
:1000200000000000000000000000000005100008B3
:1000300000000000000000005D0B0008E110000857
:1000400089010008000000008901000889010008FA
:100050008901000889010008890100088901000858
:1000600000000000890100088901000889010008DA
:1000700089010008890100088901000800000000CA
:100080006111000800000000000000008901000864
:100090008901000889010008890100088901000818
:1000A00089010008890100088901000881130008FE
:1000B0008901000800F002F800F03EF80CA030C8FA
:1000C000083824182D18A246671EAB4654465D46D4
:1000D000AC4201D100F030F87E460F3E0FCCB64660
:1000E0000126334200D0FB1AA246AB4633431847E1
:1000F0000816000028160000103A02D378C878C10C
:10010000FAD8520701D330C830C101D504680C6059
:10011000704700000023002400250026103A01D378
:1001200078C1FBD8520700D330C100D50B607047AF
:100130001FB51FBD10B510BD00F018F91146FFF72F
:10014000F7FF01F0B5FA00F030F903B4FFF7F2FF62
:1001500003BC00F035F900000F4880F308880F4811
:100160000168090E0E4A914205D10E480E49016000
:100170000E480F4901600F4880470F480047FEE7CF
:10018000FEE7FEE7FEE7FEE7FEE700000B480C494E
:100190000C4A0D4B70470000880700200400000047
:1001A0001F00000018100240010000000000014084
:1001B00000000000E5100008B500000888010020DC
:1001C00088070020880300208803002001E004C085
:1001D000091F0429FBD28B0701D50280801CC907A7
:1001E00000D00270704700290BD0C30702D0027004
:1001F000401C491E022904D3830702D50280801CBB
:10020000891EE3E70022EEE70022DFE70022030970
:100210008B422CD3030A8B4211D300239C464EE021
:1002200003460B433CD4002243088B4231D30309DD
:100230008B421CD3030A8B4201D394463FE0C3098F
:100240008B4201D3CB01C01A524183098B4201D3A7
:100250008B01C01A524143098B4201D34B01C01A92
:10026000524103098B4201D30B01C01A5241C3080A
:100270008B4201D3CB00C01A524183088B4201D379
:100280008B00C01A524143088B4201D34B00C01A65
:100290005241411A00D201465241104670475DE07A
:1002A000CA0F00D04942031000D3404253400022FD
:1002B0009C4603098B422DD3030A8B4212D3FC22A6
:1002C000890112BA030A8B420CD3890192118B4225
:1002D00008D3890192118B4204D389013AD092113B
:1002E00000E08909C3098B4201D3CB01C01A5241F6
:1002F00083098B4201D38B01C01A524143098B42BF
:1003000001D34B01C01A524103098B4201D30B01A7
:10031000C01A5241C3088B4201D3CB00C01A5241CC
:1003200083088B4201D38B00C01A5241D9D24308B3
:100330008B4201D34B00C01A5241411A00D20146F0
:10034000634652415B10104601D34042002B00D55A
:100350004942704763465B1000D3404201B500201C
:10036000C046C04602BD704770477047754600F0F2
:1003700023F8AE46050069465346C008C0008546CE
:1003800018B020B5FFF702FF60BC00274908B64649
:100390000026C0C5C0C5C0C5C0C5C0C5C0C5C0C594
:1003A000C0C5403D49008D4670470446C046C04622
:1003B0002046FFF7CAFE00000048704724010020D5
:1003C00001491820ABBEFEE726000200704700007E
:1003D00070B504460D46691EC8B2214600F044F8C7
:1003E000691E615C884200D070BDE07818490978C8
:1003F000884220D12079202802D060281AD115E027
:1004000001201449087014481449088000F09CFA2F
:1004100000F006FD207900F067FD11480021017011
:10042000417008210F48FFF7EDFE03E0204600F081
:1004300097FF00BF09E0E078FF2806D12079F02877
:1004400003D12179E07800F09FFD00BFCCE70000E8
:100450000400002005000020204E0000FE000020C7
:10046000500000205200002070B502460B460021CB
:1004700000240020002500BF17E0CE1C9D5D002455
:100480000FE006466E40F607F60F002E01D1401031
:1004900004E0182670404010802630436D10661C22
:1004A000F4B2082CEDDB4E1CF1B2D61E8E42E4DC19
:1004B00070BD000010B504466079012804D0022800
:1004C00025D0032869D145E0A079002806D001286D
:1004D00005D002280AD0032816D10EE015E0304AD4
:1004E00091881068002200F0FBFE0EE02C4A9188F3
:1004F0001068002200F002FF07E0294A9188106886
:10050000002200F009FF00E000BF00BF46E0A07934
:10051000002806D0012805D002280AD0032816D1C9
:100520000EE015E01E4A91899068012200F0D8FE85
:100530000EE01B4A91899068012200F0DFFE07E07F
:10054000174A91899068012200F0E6FE00E000BFA2
:1005500000BF23E0A079002806D0012805D002289A
:100560000AD0032816D10EE015E00D4A918A1069D1
:10057000022200F0B5FE0EE0094A918A10690222BB
:1005800000F0BCFE07E0064A918A1069022200F0E2
:10059000C3FE00E000BF00BF00E000BF00BF10BD11
:1005A000E400002008480078012809D107480088A5
:1005B000002805D005480088401E0449088002E054
:1005C000002001490870704705000020FE0000204F
:1005D000F0B50A4600210023002400BF3DE00125BC
:1005E0008D402B4615681D402C469C4234D1157910
:1005F000012D02D01579022D16D185684F000326F2
:10060000BE40B543856055794E00B5408668354398
:100610008560858801268E40B543858085889679DA
:100620008E40B6B23543858005684F000326BE4034
:10063000B543056015794E00B54006683543056041
:10064000C5684F000326BE40B543C560D5794E004E
:10065000B540C6683543C560491C1029BFD3F0BDFD
:10066000F0B5002300244D07EE0E1546B5402B468D
:10067000CD10AE0005462035AD594E07F70E0F26BA
:10068000BE40B543CE10B60007462037BD51CD1051
:10069000AE003D46AD591D432C46CD10AD003E4643
:1006A0007451F0BD02460020138A0B40002B01D08C
:1006B000012000E00020704701857047816170478C
:1006C00000BFFEE710B5044617480078844229DAD7
:1006D000002C04D0012C0DD0022C21D115E01348A0
:1006E0000078012805D1124A91881068002200F094
:1006F00013FE16E00D484078012805D10C4A918878
:100700001068012200F008FE0BE0084880780128FC
:1007100005D1074A91881068022200F0FDFD00E033
:1007200000BF00BF10BD0000060000203800002000
:10073000E40000201CB50121480400F011FA012159
:10074000880400F00DFA0121C80400F009FA012024
:10075000C00300900021684601710121C171694602
:100760000920C006FFF734FF6720C0000090002179
:10077000684601710121C17169460848FFF728FFE9
:100780000320400300900021684601710121C171DE
:1007900069460348FFF71CFF1CBD00000004004829
:1007A0000008004810B5002400BF10E0E200094B2B
:1007B000D2189188E2009858FFF774FF002801D101
:1007C000012000E0002004490855601CC4B2082C38
:1007D000ECDB10BD5C0000203800002010B500F0FC
:1007E00003F8FFF7A7FF10BD1CB50121480400F076
:1007F000B7F90121880400F0B3F9F020009000213E
:10080000684601710121C17169460920C006FFF7E0
:10081000DFFE064800900021684601710121C17188
:1008200069460348FFF7D4FE1CBD0000030C00001E
:100830000004004870B500240026002500BF3BE0FE
:10084000E2001F4BD2189188E2009858FFF72AFF68
:10085000002801D1012000E0002006460A2000F017
:100860000DFDE200164BD2189188E2009858FFF770
:1008700019FF002801D1012000E000200546AE420A
:1008800018D11048005DA84214D02046FFF71AFF87
:10089000C82000F0F3FCE200094BD2189188E20076
:1008A0009858FFF7FFFE002801D1012000E000204A
:1008B00004490855601CC4B2082CC1DB70BD00009F
:1008C0009C0000204000002070B500240025002678
:1008D00000BF2FE0E200194BD2189188E20098582F
:1008E000FFF7E0FE002801D1012000E000200546CE
:1008F0000A2000F0C3FCE200104BD2189188E200FD
:100900009858FFF7CFFE002801D1012000E0002019
:100910000646B5420CD10A48005DA84208D00948F5
:10092000005D002804D101200649085504480555FA
:10093000601CC4B2082CCDDB70BD00009C00002000
:10094000400000205200002047480078012800D1D4
:1009500000E00020400044494978012900D100E02E
:100960000021C900084340498978012900D100E0ED
:100970000021490108433C49C978012900D100E020
:100980000021C901084339490978084337490870EB
:1009900035480079012800D100E0002040003249AC
:1009A0004979012900D100E00021C90008432E49FE
:1009B0008979012900D100E00021490108432A4931
:1009C000C979012900D100E00021C9010843274964
:1009D000497808432549487025480078012800D106
:1009E00000E0002022494978012900D100E00021DF
:1009F000890008431E498978012900D100E00021BF
:100A0000090108431A49C978012900D100E00021F1
:100A100089010843154909780843144908701448A6
:100A20000079012800D100E000201149497901290D
:100A300000D100E00021890008430D49897901298E
:100A400000D100E00021090108430949C9790129C1
:100A500000D100E000218901084304494978084396
:100A60000249487070470000380000205000002004
:100A7000400000200148024908607047CCCC0000CB
:100A80000030004010B500F015F810BD70B50546F7
:100A90000C46074800F022F8284600F013F82046DC
:100AA00000F016F800F006F8FFF7E4FF70BD000054
:100AB000555500000148024908607047AAAA000085
:100AC000003000400149486070470000003000409D
:100AD000014988607047000000300040014908600B
:100AE000704700000030004070470000002182780D
:100AF000002A27D0184A03231B02D21803789B1020
:100B00009B00D15802789207D30EFF229A400B46E1
:100B10009343194642789207120E03789B07DB0E27
:100B20009A4011430C4A03231B02D21803789B10EE
:100B30009B00D1500278D306DB0E01229A40064B6F
:100B40001A6007E00278D306DB0E01229A40024BBE
:100B500080331A607047000000E100E07047000039
:100B6000002905D0054A52690243044B5A6104E04A
:100B7000024A52698243014B5A6170470010024099
:100B8000002905D0054AD2690243044BDA6104E02A
:100B9000024AD2698243014BDA6170470010024079
:100BA000002905D0054A92690243044B9A6104E08A
:100BB000024A92698243014B9A61704700100240D9
:100BC000FEB5044600250026002001900090002775
:100BD000504840680C2108400546002D04D0042DE3
:100BE00005D0082D28D105E04B48206027E04A4871
:100BF000206024E0474840680F21890408400646E9
:100C0000444840680321C90308400190B00C861C89
:100C10000198002803D14148704320600BE03D4813
:100C2000C06A0007000F401C00903B480099FFF786
:100C3000EDFA7043206002E03748206000BF00BF3B
:100C400034484068F021084005462D093448475D86
:100C50002068F84060602F4840680721090208407A
:100C600005462D0A2E48475D6068F840A060294877
:100C7000006BFF2101310840884202D02948E06022
:100C80000DE024484068012189030840884203D0D0
:100C9000A0684008E06002E0A0688008E0601D48AD
:100CA000006B40210840402802D01F48206102E02C
:100CB0000120C00320611748006B10210840102854
:100CC00002D01548606101E0206860611148006B46
:100CD0008007800F002802D1A068A06119E00D48AC
:100CE000006B8007800F012802D12068A06110E00E
:100CF0000848006B8007800F022802D18003A061A2
:100D000007E00448006B8007800F032801D10248E8
:100D1000A061FEBD0010024000127A0000093D00F3
:100D200000010020809FD500128000001CB5012129
:100D30004804FFF715FF01218804FFF711FF092080
:100D4000000200900021684601710121C1716946CD
:100D50000920C006FFF73CFC0F2000030090002193
:100D6000684601710121C17169460248FFF730FCF4
:100D70001CBD00000004004810B5002400BF1FE0A7
:100D8000E200114BD2189188E2009858FFF78AFCD4
:100D9000002801D1012000E00020002807D0012018
:100DA000A0400A49097808430849087006E0012074
:100DB000A04006490978814304480170601CC4B210
:100DC000062CDDDB10BD0000080000200400002020
:100DD0001CB5002401214804FFF7C2FE0720009043
:100DE000012168460171002181710121C171032136
:100DF000417169460920C006FFF7EAFB00BF0AE01F
:100E0000E200064BD2189188E2009858224600F082
:100E100067FA601CC4B2042CF2DB1CBDE4000020A5
:100E200012480078012801D1022000E001200F497A
:100E30004978012901D1022100E0012189000843FC
:100E40000A498978012901D1022100E00121090123
:100E500008430649C978012901D1022100E0012196
:100E6000890108430249087070470000DC00002037
:100E7000E000002010B588B00446002004900590E2
:100E800006900790019002900390AD21684601748E
:100E9000017C0171DA214174417C4171032181742B
:100EA000817C81710E4801786846C174C17CC17132
:100EB0000475017D01720B48017868464175417DDA
:100EC00041720321817401A90620FFF7CDFA69461A
:100ED0008875072104A800F0E9FA08B010BD0000E9
:100EE000040000200600002010B588B00446002051
:100EF0000490059006900790019002900390AD2118
:100F000068460174017C0171DA214174417C4171B0
:100F100003218174817C8171174801786846C1740E
:100F2000C17CC1710475017D017214480178684665
:100F30004175417D41721248417868468175817DD5
:100F400081720F4801786846C175C17DC1720D4834
:100F5000017868460176017E01730621817401A93A
:100F60000920FFF781FA694648760A2104A800F0B3
:100F70009DFA08B010BD000004000020060000200B
:100F800050000020E000002030B587B004460D4638
:100F9000002003900490059006900090019002902C
:100FA000AD2168460173017B0170DA214173417BF9
:100FB000417003218173817B8170C473C17BC170D7
:100FC0000574017C01710D48017868464174417CCB
:100FD00041710B48017868468174817C81710421DC
:100FE000817369460720FFF73FFA6946C8740821F4
:100FF00003A800F05BFA07B030BD00000600002037
:1010000004000020704700000CB500200190009003
:10101000314800680121090408432F49086000BFD6
:101020002D48006801214904084000900198401CA7
:1010300001900098002804D10521090301988842F5
:10104000EED125480068012149040840002802D05B
:101050000120009001E0002000900098012839D183
:1010600011201E4908601C4840681B49486008461A
:1010700040684860084640687F21C9038843164994
:101080004860084640681121090408431249486035
:10109000084600680121090608430F49086000BF9F
:1010A0000D4800680121490608400028F8D00A4888
:1010B000406880088000084948600846406802216E
:1010C00008430549486000BF034840680C210840B8
:1010D0000828F9D10CBD0000001002400020024099
:1010E0007047000010B51B480068012108431949EA
:1010F0000860084640681849084016494860084694
:101100000068164908401349086008460068012134
:10111000890488430F490860084640683F21090454
:1011200088430C4948600846C06A00090001C8624B
:101130000846006BFF21543188430649086308467E
:10114000406B40084000486300208860FFF75CFF68
:1011500010BD0000001002400CB8FFF8FFFFF6FEC3
:1011600010B50121054800F01DF8002805D0012127
:10117000024800F005F800F071F810BD00040040CE
:10118000CA43028270470000002904D0028801236C
:101190001A43028003E00288014B1A400280704724
:1011A000FEFF000030B50246002000230024158A0F
:1011B0000D402B4695890D402C46002B03D0002C6A
:1011C00001D0012000E0002030BD002A03D0838937
:1011D0000B43838102E083898B4383817047000046
:1011E00000220288154B984206D001239B079842A3
:1011F00002D0134B984203D1124B1A404B881A432A
:10120000114B984203D0114B1A400B891A430280AC
:101210004B68C3620B880385084B984208D00C4B7F
:10122000984205D00B4B984202D00B4B984201D10B
:101230008B7A03860123838270470000002C0140D3
:10124000000400408FFF000000100040FFFC000081
:1012500000400140004401400048014000B5FFF754
:10126000A1F905480088002804D003480088401EE2
:101270000149088000BD0000FC00002003490880EF
:1012800000BF024909880029FBD17047FC000020FB
:101290001FB501210220FFF773FCFF20E13002900F
:1012A00064216846818000218181C18001A90B48A9
:1012B000FFF796FF1021684601700021417001215F
:1012C0008170FFF713FC012211460448FFF77DFFF0
:1012D00001210248FFF758FF1FBD00000004004035
:1012E00070B505460E46144631462846FFF7E4F928
:1012F00000200149085570BDDC00002070B505468E
:101300000E46144631462846FFF7D8F90120014918
:10131000085570BDDC00002070B505460E46144629
:101320000D48005D012809D1E2000C4BD2189188CC
:10133000E20098582246FFF7D3FF0CE00648005D14
:10134000002808D1E200054BD2189188E200985895
:101350002246FFF7D3FF70BDDC000020E400002030
:1013600010B50446607905490978884205DC2046B5
:10137000FFF7A0F86079FFF77DFD10BD06000020A3
:1013800010B52049204800F0C7F8002838D01E4882
:1013900000F084F9C1B21D4802780078401C1B4B54
:1013A00018701B4881540078AD2822D118488078E5
:1013B000001D1946097888420CD118460178144856
:1013C000FFF706F800201149087014211048FEF7B5
:1013D00019FF15E00E488078001D0C4909788842F5
:1013E0000EDA00200949087014210948FEF70AFFA7
:1013F00006E014210648FEF705FF002003490870A7
:1014000010BD00000501050000380140000000206B
:101410001001002000B589B001214804FFF7A0FBAE
:1014200001218803FFF7BCFB01220921C806FFF751
:1014300017F901220A210920C006FFF711F903203C
:1014400040020790022108A801700021817001214B
:10145000C1700321417007A90920C006FFF7B8F841
:101460004B20C00101900020029003900490069050
:101470000C20059001A90B4800F096F801220A49BA
:10148000084800F070F80121064800F02FF81B21F1
:10149000684601700221417001218170FFF726FB2F
:1014A00009B000BD003801400501050070B50546D2
:1014B0000E46002400BF40210B4800F023F800280E
:1014C000F9D000240CE0295D074800F0ECF800BFDB
:1014D0004021054800F016F80028F9D0601CC4B27D
:1014E000B442F0DB70BD000000380140002904D098
:1014F000026801231A43026003E0026852085200A6
:101500000260704702460020D3690B40002B01D0D7
:10151000012000E00020704770B502460B46002411
:101520000021002500201E04350ED9B201268E4070
:101530003146012D02D11668314006E0022D02D15C
:101540005668314001E0966831401C0C0126A640E7
:101550003446D6693440002903D0002C01D0012044
:1015600000E0002070BDF8B5034600240026009678
:101570000025002018460E04340ECEB20096012736
:10158000009EB7403D46022C01D1001D02E0032C15
:1015900000D10830002A03D006682E43066002E01E
:1015A0000668AE430660F8BDF0B589B005460E4644
:1015B00000240020089000BF00BF286840084000B9
:1015C00028606C6803210903204688430446B068FC
:1015D00004436C602C682F480440F168706808432D
:1015E0003169084304432C60AC680321090220469A
:1015F0008843044670690443AC606846FFF7E0FA2C
:101600002548854202D10698089001E0029808908A
:1016100028680121C9030840002809D03268510018
:101620001923089A5A431046FEF7F0FD074608E0D2
:10163000326891001923089A5A431046FEF7E6FDD6
:10164000074664213846FEF7E1FD040120096421C4
:101650004843381A079028680121C9030840002828
:101660000AD00799C900084632306421FEF7CEFD42
:101670004007400F044309E007990901084632304A
:101680006421FEF7C3FD0007000F0443AC8109B0DD
:10169000F0BD0000F3E9FFFF003801400146888CEF
:1016A000C005C00D7047CA05D20D02857047000005
:1016B000FFF794F8FFF78CFBFFF7ACFEFFF7E8FDB0
:1016C000FFF734FB0A490420FFF7E0F90EE0FFF7CB
:1016D00053FBFFF767F807480078012802D1FFF7AE
:1016E000F3F801E0FFF7A6F8FFF7CCF9EFE7000009
:1016F000C4090000050000201817000800000020A1
:1017000010010000F800000828180008100100204F
:10171000780600001401000800000000000000002E
:101720000000004800080000000000480001000020
:101730000004004800800000000400480040000051
:1017400000040048002000000004004800100000D1
:101750000000000000000000000000000000000089
:101760000000000000000000000000000000000079
:101770000000000000080048004000000008004889
:101780000020000000040048100000000004004891
:10179000200000000004004800020000000400488F
:1017A000000100000004004808000000000000489C
:1017B000008000000004004800040000000400480D
:1017C000000800000004004802000000000000487B
:1017D00080000000000400480100000000000048F4
:1017E0004000000000000048200000000000004809
:1017F0001000000000000000000000000000004891
:101800000400000000000048020000000000004842
:1018100001000000000000000000000001020304BD
:08182000010203040607080998
:04000005080000B53A
:00000001FF
