:020000040800F2
:10000000A007002091010008DB0B00086108000830
:1000100000000000000000000000000000000000E0
:10002000000000000000000000000000391000087F
:1000300000000000000000004D0C00081511000831
:10004000C101000800000000C1010008C101000852
:10005000C1010008C1010008C1010008C101000878
:1000600000000000C1010008C1010008C101000832
:10007000C1010008C1010008C10100080000000022
:10008000951100080000000000000000C1010008F8
:10009000C1010008C1010008C1010008C101000838
:1000A000C1010008C1010008C1010008A91300082E
:1000B000C101000800F002F800F03EF80CA030C8C2
:1000C000083824182D18A246671EAB4654465D46D4
:1000D000AC4201D100F030F87E460F3E0FCCB64660
:1000E0000126334200D0FB1AA246AB4633431847E1
:1000F0003416000054160000103A02D378C878C1B4
:10010000FAD8520701D330C830C101D504680C6059
:10011000704700000023002400250026103A01D378
:1001200078C1FBD8520700D330C100D50B607047AF
:100130001FB51FBD10B510BD00F075F91146FFF7D2
:10014000F7FF01F0D8FA00F08DF903B4FFF7F2FFE2
:1001500003BC00F091F9000070B505460C46164648
:1001600002E00FCC0FC5103E102EFAD2082E02D39B
:1001700003CC03C5083E042E07D301CC01C5361FAE
:1001800003E021782970641C6D1C761EF9D270BDC5
:100190000F4880F308880F480168090E0E4A914203
:1001A00005D10E480E4901600E480F4901600F4805
:1001B00080470F480047FEE7FEE7FEE7FEE7FEE761
:1001C000FEE700000B480C490C4A0D4B704700003D
:1001D000A0070020040000001F00000018100240CB
:1001E000010000000000014000000000191100089B
:1001F000B5000008A0010020A0070020A0030020F7
:10020000A0030020F8B5042A2CD3830712D00B7862
:10021000491C0370401C521E83070BD00B78491CED
:100220000370401C521E830704D00B78491C0370D6
:10023000401C521E8B079B0F05D0C91ADF002023DC
:10024000DE1B08C90AE0FFF787FFF8BD1D4608C995
:10025000FD401C46B4402C4310C0121F042AF5D2A6
:10026000F308C91A521EF0D40B78491C0370401CC5
:10027000521EEAD40B78491C0370401C012AE4D4B6
:1002800009780170F8BD01E004C0091F0429FBD200
:100290008B0701D50280801CC90700D0027070470F
:1002A00000290BD0C30702D00270401C491E02294E
:1002B00004D3830702D50280801C891EE3E7002255
:1002C000EEE70022DFE7002203098B422CD3030A6A
:1002D0008B4211D300239C464EE003460B433CD493
:1002E000002243088B4231D303098B421CD3030AFB
:1002F0008B4201D394463FE0C3098B4201D3CB012B
:10030000C01A524183098B4201D38B01C01A52415A
:1003100043098B4201D34B01C01A524103098B425E
:1003200001D30B01C01A5241C3088B4201D3CB0049
:10033000C01A524183088B4201D38B00C01A52412C
:1003400043088B4201D34B00C01A5241411A00D2DC
:1003500001465241104670475DE0CA0F00D0494245
:10036000031000D34042534000229C4603098B42B5
:100370002DD3030A8B4212D3FC22890112BA030A3D
:100380008B420CD3890192118B4208D389019211BF
:100390008B4204D389013AD0921100E08909C30944
:1003A0008B4201D3CB01C01A524183098B4201D346
:1003B0008B01C01A524143098B4201D34B01C01A31
:1003C000524103098B4201D30B01C01A5241C308A9
:1003D0008B4201D3CB00C01A524183088B4201D318
:1003E0008B00C01A5241D9D243088B4201D34B0033
:1003F000C01A5241411A00D20146634652415B1075
:10040000104601D34042002B00D549427047634655
:100410005B1000D3404201B50020C046C04602BD7B
:10042000704770477047754600F022F8AE460500E9
:1004300069465346C008C000854618B020B5FFF78E
:10044000C1FE60BC00274908B6460026C0C5C0C52D
:10045000C0C5C0C5C0C5C0C5C0C5C0C5403D4900B8
:100460008D4670470446C046C0462046FFF76DFEE5
:10047000004870473C01002001491820ABBEFEE750
:1004800026000200704700001CB50121480400F05E
:10049000DFFB0121880400F0DBFB09200002009053
:1004A0000021684601710121C17169460920C00619
:1004B00000F04EF90F200003009000216846017102
:1004C0000121C1716946024800F042F91CBD0000DB
:1004D0000004004810B5002400BF1FE0E200114BEB
:1004E000D2189188E200985800F09CF9002801D1B8
:1004F000012000E00020002807D00120A0400A4988
:10050000097808430849087006E00120A040064920
:100510000978814304480170601CC4B2062CDDDBFD
:1005200010BD00000C0000200800002070B504463B
:100530000D46E0781549097888421CD12079202899
:1005400002D0602816D111E001201149087011482D
:100550001149088000F0E8F900F088FC207900F0EB
:10056000E5FC0E4800210170417003E0204600F0D8
:1005700011FF00BF09E0E078FF2806D12079F028BC
:1005800003D12179E07800F01DFD70BD0800002046
:100590000900002070170000FE0000204C00002021
:1005A00070B502460B4600200021002500BF17E071
:1005B000CE1C9C5D00250FE006466640F607F60F50
:1005C000002E01D1401004E0182670404010802613
:1005D000304364106E1CF5B2082DEDDB4E1CF1B2F9
:1005E000D61E8E42E4DC70BD10B504466079012849
:1005F00006D0022827D0032848D0042873D168E009
:10060000A079002806D0012805D002280AD00328A6
:1006100016D10EE015E0424A91881068002200F0E1
:1006200079FE0EE03E4A91881068002200F080FEBC
:1006300007E03B4A91881068002200F087FE00E046
:1006400000BF00BF6AE0A079002806D0012805D0CD
:1006500002280AD0032816D10EE015E0304A91890D
:100660009068012200F056FE0EE02D4A91899068B4
:10067000012200F05DFE07E0294A9189906801227D
:1006800000F064FE00E000BF00BF47E0A079002852
:1006900006D0012805D002280AD0032816D10EE082
:1006A00015E01F4A918A1069022200F033FE0EE025
:1006B0001B4A918A1069022200F03AFE07E0184AAC
:1006C000918A1069022200F041FE00E000BF00BFE5
:1006D00024E0A079002807D0012806D002280BD0FA
:1006E000032817D10FE018E015E00D4A918B9069AF
:1006F000032200F00FFE0EE0094A918B906903225D
:1007000000F016FE07E0064A918B9069032200F084
:100710001DFE00E000BF00BF00E000BF00BF10BD35
:10072000DC00002008480078012809D1074800882B
:10073000002805D005480088401E0449088002E0D2
:10074000002001490870704709000020FE000020C9
:10075000F0B50A4600210023002400BF3DE001253A
:100760008D402B4615681D402C469C4234D115798E
:10077000012D02D01579022D16D185684F00032670
:10078000BE40B543856055794E00B5408668354317
:100790008560858801268E40B54385808588967959
:1007A0008E40B6B23543858005684F000326BE40B3
:1007B000B543056015794E00B540066835430560C0
:1007C000C5684F000326BE40B543C560D5794E00CD
:1007D000B540C6683543C560491C1029BFD3F0BD7C
:1007E000F0B5002300244D07EE0E1546B5402B460C
:1007F000CD10AE0005462035AD594E07F70E0F2639
:10080000BE40B543CE10B60007462037BD51CD10CF
:10081000AE003D46AD591D432C46CD10AD003E46C1
:100820007451F0BD02460020138A0B40002B01D00A
:10083000012000E00020704702460020938A0B4010
:10084000002B01D0012000E0002070470185704797
:1008500081617047002A01D0816100E00185704705
:1008600000BFFEE710B504460648005D012808D128
:10087000E200054BD2189188E2009858224600F019
:1008800065FD10BD3C000020DC0000201CB50121EE
:10089000480400F0DDF90121880400F0D9F90121B4
:1008A000C80400F0D5F90120C0030090002168467B
:1008B00001710121C17169460920C006FFF748FF97
:1008C000FF20F93000900021684601710121C171BB
:1008D00069460848FFF73CFF0120400300900021D3
:1008E000684601710121C17169460348FFF730FF75
:1008F0001CBD00000004004800080048F8B505468B
:100900000E460027002400BF09E0285D315D8842C3
:1009100003D02046FFF7A6FF0127601CC4B2082CB5
:10092000F3DB3846F8BD000047480078012800D1C5
:1009300000E00020400044494978012900D100E04E
:100940000021C900084340498978012900D100E00D
:100950000021490108433C49C978012900D100E040
:100960000021C9010843394909780843374908700B
:1009700035480079012800D100E0002040003249CC
:100980004979012900D100E00021C90008432E491E
:100990008979012900D100E00021490108432A4951
:1009A000C979012900D100E00021C9010843274984
:1009B000497808432549487025480078012800D126
:1009C00000E0002022494978012900D100E00021FF
:1009D000890008431E498978012900D100E00021DF
:1009E000090108431A49C978012900D100E0002112
:1009F00089010843154909780843144908701448C7
:100A00000079012800D100E000201149497901292D
:100A100000D100E00021890008430D4989790129AE
:100A200000D100E00021090108430949C9790129E1
:100A300000D100E0002189010843044949780843B6
:100A400002494870704700003C0000204C00002024
:100A5000440000201CB50121480400F0F9F80121F0
:100A6000880400F0F5F80121C80400F0F1F8F8203E
:100A700000900021684601710121C1716946092079
:100A8000C006FFF765FE0120400200900021684685
:100A900001710121C17169460748FFF759FE032022
:100AA000800300900021684601710121C1716946EF
:100AB0000248FFF74DFE1CBD000400480008004836
:100AC00010B5002400BF10E0E200094BD218918855
:100AD000E2009858FFF7A6FE002801D1012000E0AF
:100AE000002004490855601CC4B2082CECDB10BD82
:100AF000500000203C00002010B5002400BF10E092
:100B0000E2001C4BD2189188E2009858FFF78AFE49
:100B1000002801D1012000E0002017490855601C81
:100B2000C4B2082CECDB15480078002821D1144809
:100B300000F0BEFB10491348FFF7E0FE002818D074
:100B4000002410E0E2000B4BD2189188E200985884
:100B5000FFF768FE002801D1012000E000200649CF
:100B60000855601CC4B2082CECDB06480249096831
:100B7000016010BD9000002044000020090000200A
:100B8000B80B0000D000002010B50C210920C006D1
:100B9000FFF752FE0121081AC4B222460C21092097
:100BA000C006FFF757FE10BD1CB50121480400F038
:100BB0004FF80C20009001216846017100218171DD
:100BC0000321417169460920C006FFF7C1FD0C21D0
:100BD0000920C006FFF73CFE1CBD7047002182784B
:100BE000002A27D0184A03231B02D21803789B102F
:100BF0009B00D15802789207D30EFF229A400B46F1
:100C00009343194642789207120E03789B07DB0E36
:100C10009A4011430C4A03231B02D21803789B10FD
:100C20009B00D1500278D306DB0E01229A40064B7E
:100C30001A6007E00278D306DB0E01229A40024BCD
:100C400080331A607047000000E100E07047000048
:100C5000002905D0054A52690243044B5A6104E059
:100C6000024A52698243014B5A61704700100240A8
:100C7000002905D0054AD2690243044BDA6104E039
:100C8000024AD2698243014BDA6170470010024088
:100C9000002905D0054A92690243044B9A6104E099
:100CA000024A92698243014B9A61704700100240E8
:100CB000FEB5044600250026002001900090002784
:100CC000504840680C2108400546002D04D0042DF2
:100CD00005D0082D28D105E04B48206027E04A4880
:100CE000206024E0474840680F21890408400646F8
:100CF000444840680321C90308400190B00C861C99
:100D00000198002803D14148704320600BE03D4822
:100D1000C06A0007000F401C00903B480099FFF795
:100D2000D2FA7043206002E03748206000BF00BF65
:100D300034484068F021084005462D093448475D95
:100D40002068F84060602F48406807210902084089
:100D500005462D0A2E48475D6068F840A060294886
:100D6000006BFF2101310840884202D02948E06031
:100D70000DE024484068012189030840884203D0DF
:100D8000A0684008E06002E0A0688008E0601D48BC
:100D9000006B40210840402802D01F48206102E03B
:100DA0000120C00320611748006B10210840102863
:100DB00002D01548606101E0206860611148006B55
:100DC0008007800F002802D1A068A06119E00D48BB
:100DD000006B8007800F012802D12068A06110E01D
:100DE0000848006B8007800F022802D18003A061B1
:100DF00007E00448006B8007800F032801D10248F8
:100E0000A061FEBD0010024000127A0000093D0002
:100E100000010020809FD500128000001CB5002436
:100E200001214804FFF714FF0D4800900121684696
:100E30000171C1710321417169460A48FFF788FCBD
:100E400000BF0AE0E200084BD2189188E2009858EF
:100E5000224600F05FFA601CC4B2042CF2DB1CBD19
:100E6000030C000000040048DC0000201248007859
:100E7000012801D1022000E001200F494978012911
:100E800001D1022100E00121890008430A49897843
:100E9000012901D1022100E001210901084306498D
:100EA000C978012901D1022100E00121890108430B
:100EB0000249087070470000D4000020D8000020CC
:100EC00010B588B004460020049005900690079065
:100ED000019002900390AD2168460174017C01717C
:100EE000DA214174417C417103218174817C8171DB
:100EF0000D4801786846C174C17CC1710475017DDB
:100F0000017204214175417D41720321817401A95F
:100F10000620FFF745FB69468875072104A800F005
:100F2000E9FA08B010BD00000800002010B588B034
:100F300004460020049005900690079001900290CE
:100F40000390AD2168460174017C0171DA2141747E
:100F5000417C417103218174817C81711648017843
:100F60006846C174C17CC1710475017D01720421A0
:100F70004175417D41721148417868468175817D96
:100F800081720E4801786846C175C17DC1720C48F6
:100F9000017868460176017E01730621817401A9FA
:100FA0000920FFF7FDFA694648760A2104A800F0F7
:100FB000A1FA08B010BD0000080000204C0000207D
:100FC000D800002030B587B004460D4600200390BD
:100FD000049005900690009001900290AD21684623
:100FE0000173017B0170DA214173417B4170032160
:100FF0008173817B8170C473C17BC1700574017C76
:10100000017104214174417C41710A4801786846AC
:101010008174817C81710421817369460720FFF707
:10102000BFFA6946C874082103A800F063FA07B044
:1010300030BD000008000020704700000CB5002003
:1010400001900090314800680121090408432F49AC
:10105000086000BF2D480068012149040840009045
:101060000198401C01900098002804D10521090333
:1010700001988842EED125480068012149040840C2
:10108000002802D00120009001E00020009000988C
:10109000012839D111201E4908601C4840681B49AD
:1010A0004860084640684860084640687F21C90398
:1010B00088431649486008464068112109040843DE
:1010C00012494860084600680121090608430F4993
:1010D000086000BF0D48006801214906084000284B
:1010E000F8D00A48406880088000084948600846EF
:1010F0004068022108430549486000BF0348406832
:101100000C2108400828F9D10CBD00000010024055
:10111000002002407047000010B51B480068012104
:1011200008431949086008464068184908401649AC
:101130004860084600681649084013490860084698
:1011400000680121890488430F4908600846406807
:101150003F21090488430C4948600846C06A0009D9
:101160000001C8620846006BFF21543188430649DC
:1011700008630846406B40084000486300208860D0
:10118000FFF75CFF10BD0000001002400CB8FFF834
:10119000FFFFF6FE10B50121054800F01DF80028FC
:1011A00005D00121024800F005F800F071F810BDEB
:1011B00000040040CA43028270470000002904D0A6
:1011C000028801231A43028003E00288014B1A407F
:1011D00002807047FEFF000030B502460020002369
:1011E0000024158A0D402B4695890D402C46002B76
:1011F00003D0002C01D0012000E0002030BD002AE7
:1012000003D083890B43838102E083898B438381ED
:101210007047000000220288154B984206D0012337
:101220009B07984202D0134B984203D1124B1A40AD
:101230004B881A43114B984203D0114B1A400B892B
:101240001A4302804B68C3620B880385084B98429F
:1012500008D00C4B984205D00B4B984202D00B4B58
:10126000984201D18B7A0386012383827047000064
:10127000002C0140000400408FFF000000100040DF
:10128000FFFC0000004001400044014000480140D4
:1012900000B5FFF747FA05480088002804D0034846
:1012A0000088401E0149088000BD0000FC000020AD
:1012B0000349088000BF024909880029FBD1704713
:1012C000FC0000201FB501210220FFF7D1FCFF2008
:1012D000E130029064216846818000218181C180D3
:1012E00001A90B48FFF796FF102168460170002105
:1012F000417001218170FFF771FC01221146044801
:10130000FFF77DFF01210248FFF758FF1FBD0000D6
:101310000004004070B505460E4614463146284686
:10132000FFF794FA00200149085570BDD400002051
:1013300070B505460E46144631462846FFF788FA32
:1013400001200149085570BDD400002070B5054644
:101350000E4614460D48005D012809D1E2000C4BF1
:10136000D2189188E20098582246FFF7D3FF0CE08C
:101370000648005D002808D1E200054BD21891888C
:10138000E20098582246FFF7D3FF70BDD40000203A
:10139000DC00002010B504462046FFF725F920792F
:1013A000FFF78EFD10BD000010B52749274800F05B
:1013B000D7F8002847D0254800F094F9C1B2244856
:1013C00002780078401C224B187022488154007823
:1013D000AD282FD11F488078001D19460978884212
:1013E00019D1184602781B491B48FEF70BFF184815
:1013F00000781949491E4875012008701448017881
:101400001448FFF793F8002011490870142111487F
:10141000FEF755FF15E00F488078001D0C4909784C
:1014200088420EDA00200A49087014210948FEF7A4
:1014300046FF06E014210748FEF741FF002004495B
:101440000870FFF7A1FB10BD050105000038014041
:1014500000000020260100201101002000B589B005
:1014600001214804FFF7F4FB01218803FFF710FC7A
:1014700001220921C806FFF7B3F901220A21092038
:10148000C006FFF7ADF9032040020790022108A82B
:101490000170002181700121C1700321417007A9F1
:1014A0000920C006FFF754F94B20C001019000202D
:1014B00002900390049006900C20059001A90B481F
:1014C00000F096F801220A49084800F070F801215E
:1014D000064800F02FF81B21684601700221417078
:1014E00001218170FFF77AFB09B000BD003801408F
:1014F0000501050070B505460E46002400BF4021D9
:101500000B4800F023F80028F9D000240CE0295DF6
:10151000074800F0ECF800BF4021054800F016F83D
:101520000028F9D0601CC4B2B442F0DB70BD0000EA
:1015300000380140002904D0026801231A430260E8
:1015400003E0026852085200026070470246002021
:10155000D3690B40002B01D0012000E00020704730
:1015600070B502460B4600240021002500201E0411
:10157000350ED9B201268E403146012D02D11668B2
:10158000314006E0022D02D15668314001E09668F4
:1015900031401C0C0126A6403446D669344000294F
:1015A00003D0002C01D0012000E0002070BDF8B570
:1015B00003460024002600960025002018460E044D
:1015C000340ECEB200960127009EB7403D46022C55
:1015D00001D1001D02E0032C00D10830002A03D005
:1015E00006682E43066002E00668AE430660F8BD5A
:1015F000F0B589B005460E4600240020089000BFD3
:1016000000BF28684008400028606C680321090377
:10161000204688430446B06804436C602C682F4819
:101620000440F168706808433169084304432C6042
:10163000AC680321090220468843044670690443CC
:10164000AC606846FFF734FB2548854202D1069816
:10165000089001E00298089028680121C903084019
:10166000002809D0326851001923089A5A431046BD
:10167000FEF729FE074608E0326891001923089A10
:101680005A431046FEF71FFE074664213846FEF710
:101690001AFE0401200964214843381A079028687B
:1016A0000121C903084000280AD00799C90008464B
:1016B00032306421FEF707FE4007400F044309E083
:1016C00007990901084632306421FEF7FCFD000746
:1016D000000F0443AC8109B0F0BD0000F3E9FFFF47
:1016E000003801400146888CC005C00D7047CA050E
:1016F000D20D02857047FFF7E5FDFFF755FAFFF7BA
:101700008DFBFFF7ABFEFFF7C1F8FFF7A3F9FEF77C
:10171000BBFE05E0FEF7DEFEFFF7D2F9FFF7ECF9BE
:10172000F8E7000044170008000000201001000046
:10173000F80000085418000810010020900600006E
:10174000140100080000000000000000000100007B
:1017500000040048001000000004004800200000C1
:101760000004004800400000000400480080000021
:1017700000000048000100000000004800080000D0
:101780000000000000000000000000000000000059
:1017900000000000000400480002000000080048AB
:1017A00000400000000800480080000000000048E1
:1017B00080000000000000484000000000000048D9
:1017C0002000000000000048100000000000004859
:1017D00008000000000000480080000000040048ED
:1017E0000800000000040048100000000004004849
:1017F00020000000000400484000000000040048F1
:1018000080000000000400480001000000080048BB
:1018100000200000000000000000000000000000A8
:10182000000400480100000000040048020000001D
:101830000004004800040000000400480008000004
:1018400000007017000000000102030401020304FD
:041850000607080976
:04000005080000B53A
:00000001FF
